{
  "contractName": "KryptoBird",
  "abi": [
    {
      "inputs": [],
      "stateMutability": "nonpayable",
      "type": "constructor"
    },
    {
      "anonymous": false,
      "inputs": [
        {
          "indexed": true,
          "internalType": "address",
          "name": "_owner",
          "type": "address"
        },
        {
          "indexed": true,
          "internalType": "address",
          "name": "_approved",
          "type": "address"
        },
        {
          "indexed": true,
          "internalType": "uint256",
          "name": "_tokenId",
          "type": "uint256"
        }
      ],
      "name": "Approval",
      "type": "event"
    },
    {
      "anonymous": false,
      "inputs": [
        {
          "indexed": true,
          "internalType": "address",
          "name": "_from",
          "type": "address"
        },
        {
          "indexed": true,
          "internalType": "address",
          "name": "_to",
          "type": "address"
        },
        {
          "indexed": true,
          "internalType": "uint256",
          "name": "_tokenId",
          "type": "uint256"
        }
      ],
      "name": "Transfer",
      "type": "event"
    },
    {
      "inputs": [
        {
          "internalType": "address",
          "name": "_owner",
          "type": "address"
        }
      ],
      "name": "balanceOf",
      "outputs": [
        {
          "internalType": "uint256",
          "name": "",
          "type": "uint256"
        }
      ],
      "stateMutability": "view",
      "type": "function",
      "constant": true
    },
    {
      "inputs": [
        {
          "internalType": "uint256",
          "name": "",
          "type": "uint256"
        }
      ],
      "name": "kryptoBirdz",
      "outputs": [
        {
          "internalType": "string",
          "name": "",
          "type": "string"
        }
      ],
      "stateMutability": "view",
      "type": "function",
      "constant": true
    },
    {
      "inputs": [],
      "name": "name",
      "outputs": [
        {
          "internalType": "string",
          "name": "",
          "type": "string"
        }
      ],
      "stateMutability": "view",
      "type": "function",
      "constant": true
    },
    {
      "inputs": [
        {
          "internalType": "uint256",
          "name": "_tokenId",
          "type": "uint256"
        }
      ],
      "name": "ownerOf",
      "outputs": [
        {
          "internalType": "address",
          "name": "",
          "type": "address"
        }
      ],
      "stateMutability": "view",
      "type": "function",
      "constant": true
    },
    {
      "inputs": [
        {
          "internalType": "bytes4",
          "name": "interfaceID",
          "type": "bytes4"
        }
      ],
      "name": "supportsInterface",
      "outputs": [
        {
          "internalType": "bool",
          "name": "",
          "type": "bool"
        }
      ],
      "stateMutability": "view",
      "type": "function",
      "constant": true
    },
    {
      "inputs": [],
      "name": "symbol",
      "outputs": [
        {
          "internalType": "string",
          "name": "",
          "type": "string"
        }
      ],
      "stateMutability": "view",
      "type": "function",
      "constant": true
    },
    {
      "inputs": [
        {
          "internalType": "uint256",
          "name": "index",
          "type": "uint256"
        }
      ],
      "name": "tokenByIndex",
      "outputs": [
        {
          "internalType": "uint256",
          "name": "",
          "type": "uint256"
        }
      ],
      "stateMutability": "view",
      "type": "function",
      "constant": true
    },
    {
      "inputs": [
        {
          "internalType": "address",
          "name": "owner",
          "type": "address"
        },
        {
          "internalType": "uint256",
          "name": "index",
          "type": "uint256"
        }
      ],
      "name": "tokenOfOwnerByIndex",
      "outputs": [
        {
          "internalType": "uint256",
          "name": "",
          "type": "uint256"
        }
      ],
      "stateMutability": "view",
      "type": "function",
      "constant": true
    },
    {
      "inputs": [],
      "name": "totalSupply",
      "outputs": [
        {
          "internalType": "uint256",
          "name": "",
          "type": "uint256"
        }
      ],
      "stateMutability": "view",
      "type": "function",
      "constant": true
    },
    {
      "inputs": [
        {
          "internalType": "address",
          "name": "_from",
          "type": "address"
        },
        {
          "internalType": "address",
          "name": "_to",
          "type": "address"
        },
        {
          "internalType": "uint256",
          "name": "_tokenId",
          "type": "uint256"
        }
      ],
      "name": "transferFrom",
      "outputs": [],
      "stateMutability": "nonpayable",
      "type": "function"
    },
    {
      "inputs": [
        {
          "internalType": "string",
          "name": "_kryptoBird",
          "type": "string"
        }
      ],
      "name": "mint",
      "outputs": [],
      "stateMutability": "nonpayable",
      "type": "function"
    }
  ],
  "bytecode": "0x60806040523480156200001157600080fd5b506040518060400160405280600a81526020017f4b727970746f42697264000000000000000000000000000000000000000000008152506040518060400160405280600681526020017f4b424952445a00000000000000000000000000000000000000000000000000008152508181620000b17f01ffc9a7a5cef8baa21ed3c5c0d7e23accb804b619e9333b597f47a0d84076e26200021c60201b60201c565b620001047f13b182f4c0e5b2efbac0efe6cf6d756c8b89f4b79c5707a043ed9ea740574ee97f7feaf19471f34a12a7eaf32d5f3090aa2260ea8624dc8a138e74e0bf0f623076186200021c60201b60201c565b81600190816200011591906200056d565b5080600290816200012791906200056d565b5050506200019f7f22c82707ba960a14c7592ffb6b8cfaa073fed0048a84cc7fa41f6b5bd8e7f2e47f3a6eb71757dfc6e784c1459d26270140c2c147d95ca985c80026fc5301c3eca17f8a7e378434598edc36d108689a030cbc9d7d465de4f74c71bae1028eed6a881b18186200021c60201b60201c565b620002147f995f1cd13b9ad2d00ffd45cc1650580a32b84ff49e5718d9b75d12047a6cab757f6da5e1284143cdd2d15038a59bde3be031250f00291d64494c12d967b3a4e0c37fc53637662700e6c65104059db8bba34439e0c32483ab7c34e3ccae52c739549518186200021c60201b60201c565b5050620006d7565b63ffffffff60e01b817bffffffffffffffffffffffffffffffffffffffffffffffffffffffff19160362000287576040517f08c379a00000000000000000000000000000000000000000000000000000000081526004016200027e90620006b5565b60405180910390fd5b6001600080837bffffffffffffffffffffffffffffffffffffffffffffffffffffffff19167bffffffffffffffffffffffffffffffffffffffffffffffffffffffff1916815260200190815260200160002060006101000a81548160ff02191690831515021790555050565b600081519050919050565b7f4e487b7100000000000000000000000000000000000000000000000000000000600052604160045260246000fd5b7f4e487b7100000000000000000000000000000000000000000000000000000000600052602260045260246000fd5b600060028204905060018216806200037557607f821691505b6020821081036200038b576200038a6200032d565b5b50919050565b60008190508160005260206000209050919050565b60006020601f8301049050919050565b600082821b905092915050565b600060088302620003f57fffffffffffffffffffffffffffffffffffffffffffffffffffffffffffffffff82620003b6565b620004018683620003b6565b95508019841693508086168417925050509392505050565b6000819050919050565b6000819050919050565b60006200044e62000448620004428462000419565b62000423565b62000419565b9050919050565b6000819050919050565b6200046a836200042d565b62000482620004798262000455565b848454620003c3565b825550505050565b600090565b620004996200048a565b620004a68184846200045f565b505050565b5b81811015620004ce57620004c26000826200048f565b600181019050620004ac565b5050565b601f8211156200051d57620004e78162000391565b620004f284620003a6565b8101602085101562000502578190505b6200051a6200051185620003a6565b830182620004ab565b50505b505050565b600082821c905092915050565b6000620005426000198460080262000522565b1980831691505092915050565b60006200055d83836200052f565b9150826002028217905092915050565b6200057882620002f3565b67ffffffffffffffff811115620005945762000593620002fe565b5b620005a082546200035c565b620005ad828285620004d2565b600060209050601f831160018114620005e55760008415620005d0578287015190505b620005dc85826200054f565b8655506200064c565b601f198416620005f58662000391565b60005b828110156200061f57848901518255600182019150602085019450602081019050620005f8565b868310156200063f57848901516200063b601f8916826200052f565b8355505b6001600288020188555050505b505050505050565b600082825260208201905092915050565b7f496e76616c696420696e74657266616365207265717565737400000000000000600082015250565b60006200069d60198362000654565b9150620006aa8262000665565b602082019050919050565b60006020820190508181036000830152620006d0816200068e565b9050919050565b611a5b80620006e76000396000f3fe608060405234801561001057600080fd5b50600436106100a95760003560e01c80634f6ccce7116100715780634f6ccce7146101665780636352211e1461019657806370a08231146101c657806393ab6e56146101f657806395d89b4114610226578063d85d3d2714610244576100a9565b806301ffc9a7146100ae57806306fdde03146100de57806318160ddd146100fc57806323b872dd1461011a5780632f745c5914610136575b600080fd5b6100c860048036038101906100c39190610e14565b610260565b6040516100d59190610e5c565b60405180910390f35b6100e66102c7565b6040516100f39190610f07565b60405180910390f35b610104610359565b6040516101119190610f42565b60405180910390f35b610134600480360381019061012f9190610fe7565b610366565b005b610150600480360381019061014b919061103a565b610376565b60405161015d9190610f42565b60405180910390f35b610180600480360381019061017b919061107a565b610426565b60405161018d9190610f42565b60405180910390f35b6101b060048036038101906101ab919061107a565b610497565b6040516101bd91906110b6565b60405180910390f35b6101e060048036038101906101db91906110d1565b610548565b6040516101ed9190610f42565b60405180910390f35b610210600480360381019061020b919061107a565b6105ff565b60405161021d9190610f07565b60405180910390f35b61022e6106ab565b60405161023b9190610f07565b60405180910390f35b61025e60048036038101906102599190611233565b61073d565b005b6000806000837bffffffffffffffffffffffffffffffffffffffffffffffffffffffff19167bffffffffffffffffffffffffffffffffffffffffffffffffffffffff1916815260200190815260200160002060009054906101000a900460ff169050919050565b6060600180546102d6906112ab565b80601f0160208091040260200160405190810160405280929190818152602001828054610302906112ab565b801561034f5780601f106103245761010080835404028352916020019161034f565b820191906000526020600020905b81548152906001019060200180831161033257829003601f168201915b5050505050905090565b6000600680549050905090565b610371838383610802565b505050565b600061038183610548565b82106103c2576040517f08c379a00000000000000000000000000000000000000000000000000000000081526004016103b99061134e565b60405180910390fd5b600860008473ffffffffffffffffffffffffffffffffffffffff1673ffffffffffffffffffffffffffffffffffffffff16815260200190815260200160002082815481106104135761041261136e565b5b9060005260206000200154905092915050565b6000610430610359565b8210610471576040517f08c379a00000000000000000000000000000000000000000000000000000000081526004016104689061134e565b60405180910390fd5b600682815481106104855761048461136e565b5b90600052602060002001549050919050565b6000806003600084815260200190815260200160002060009054906101000a900473ffffffffffffffffffffffffffffffffffffffff169050600073ffffffffffffffffffffffffffffffffffffffff168173ffffffffffffffffffffffffffffffffffffffff160361053f576040517f08c379a00000000000000000000000000000000000000000000000000000000081526004016105369061140f565b60405180910390fd5b80915050919050565b60008073ffffffffffffffffffffffffffffffffffffffff168273ffffffffffffffffffffffffffffffffffffffff16036105b8576040517f08c379a00000000000000000000000000000000000000000000000000000000081526004016105af9061140f565b60405180910390fd5b600460008373ffffffffffffffffffffffffffffffffffffffff1673ffffffffffffffffffffffffffffffffffffffff168152602001908152602001600020549050919050565b600a818154811061060f57600080fd5b90600052602060002001600091509050805461062a906112ab565b80601f0160208091040260200160405190810160405280929190818152602001828054610656906112ab565b80156106a35780601f10610678576101008083540402835291602001916106a3565b820191906000526020600020905b81548152906001019060200180831161068657829003601f168201915b505050505081565b6060600280546106ba906112ab565b80601f01602080910402602001604051908101604052809291908181526020018280546106e6906112ab565b80156107335780601f1061070857610100808354040283529160200191610733565b820191906000526020600020905b81548152906001019060200180831161071657829003601f168201915b5050505050905090565b600b8160405161074d919061146b565b908152602001604051809103902060009054906101000a900460ff16156107a9576040517f08c379a00000000000000000000000000000000000000000000000000000000081526004016107a0906114ce565b60405180910390fd5b600a819080600181540180825580915050600190039060005260206000200160009091909190915090816107dd919061169a565b5060006001600a805490506107f2919061179b565b90506107fe3382610a47565b5050565b600073ffffffffffffffffffffffffffffffffffffffff168273ffffffffffffffffffffffffffffffffffffffff1603610871576040517f08c379a000000000000000000000000000000000000000000000000000000000815260040161086890611841565b60405180910390fd5b8273ffffffffffffffffffffffffffffffffffffffff1661089182610497565b73ffffffffffffffffffffffffffffffffffffffff16146108e7576040517f08c379a00000000000000000000000000000000000000000000000000000000081526004016108de906118d3565b60405180910390fd5b6001600460008573ffffffffffffffffffffffffffffffffffffffff1673ffffffffffffffffffffffffffffffffffffffff1681526020019081526020016000206000828254610937919061179b565b925050819055506001600460008473ffffffffffffffffffffffffffffffffffffffff1673ffffffffffffffffffffffffffffffffffffffff168152602001908152602001600020600082825461098e91906118f3565b92505081905550816003600083815260200190815260200160002060006101000a81548173ffffffffffffffffffffffffffffffffffffffff021916908373ffffffffffffffffffffffffffffffffffffffff160217905550808273ffffffffffffffffffffffffffffffffffffffff168473ffffffffffffffffffffffffffffffffffffffff167fddf252ad1be2c89b69c2b068fc378daa952ba7f163c4a11628f55a4df523b3ef60405160405180910390a4505050565b610a518282610a68565b610a5a81610c29565b610a648282610c72565b5050565b600073ffffffffffffffffffffffffffffffffffffffff168273ffffffffffffffffffffffffffffffffffffffff1603610ad7576040517f08c379a0000000000000000000000000000000000000000000000000000000008152600401610ace90611999565b60405180910390fd5b610ae081610d36565b15610b20576040517f08c379a0000000000000000000000000000000000000000000000000000000008152600401610b1790611a05565b60405180910390fd5b816003600083815260200190815260200160002060006101000a81548173ffffffffffffffffffffffffffffffffffffffff021916908373ffffffffffffffffffffffffffffffffffffffff1602179055506001600460008473ffffffffffffffffffffffffffffffffffffffff1673ffffffffffffffffffffffffffffffffffffffff1681526020019081526020016000206000828254610bc291906118f3565b92505081905550808273ffffffffffffffffffffffffffffffffffffffff16600073ffffffffffffffffffffffffffffffffffffffff167fddf252ad1be2c89b69c2b068fc378daa952ba7f163c4a11628f55a4df523b3ef60405160405180910390a45050565b6006805490506007600083815260200190815260200160002081905550600681908060018154018082558091505060019003906000526020600020016000909190919091505550565b600860008373ffffffffffffffffffffffffffffffffffffffff1673ffffffffffffffffffffffffffffffffffffffff168152602001908152602001600020805490506009600083815260200190815260200160002081905550600860008373ffffffffffffffffffffffffffffffffffffffff1673ffffffffffffffffffffffffffffffffffffffff1681526020019081526020016000208190806001815401808255809150506001900390600052602060002001600090919091909150555050565b6000806003600084815260200190815260200160002060009054906101000a900473ffffffffffffffffffffffffffffffffffffffff169050600073ffffffffffffffffffffffffffffffffffffffff168173ffffffffffffffffffffffffffffffffffffffff161415915050919050565b6000604051905090565b600080fd5b600080fd5b60007fffffffff0000000000000000000000000000000000000000000000000000000082169050919050565b610df181610dbc565b8114610dfc57600080fd5b50565b600081359050610e0e81610de8565b92915050565b600060208284031215610e2a57610e29610db2565b5b6000610e3884828501610dff565b91505092915050565b60008115159050919050565b610e5681610e41565b82525050565b6000602082019050610e716000830184610e4d565b92915050565b600081519050919050565b600082825260208201905092915050565b60005b83811015610eb1578082015181840152602081019050610e96565b60008484015250505050565b6000601f19601f8301169050919050565b6000610ed982610e77565b610ee38185610e82565b9350610ef3818560208601610e93565b610efc81610ebd565b840191505092915050565b60006020820190508181036000830152610f218184610ece565b905092915050565b6000819050919050565b610f3c81610f29565b82525050565b6000602082019050610f576000830184610f33565b92915050565b600073ffffffffffffffffffffffffffffffffffffffff82169050919050565b6000610f8882610f5d565b9050919050565b610f9881610f7d565b8114610fa357600080fd5b50565b600081359050610fb581610f8f565b92915050565b610fc481610f29565b8114610fcf57600080fd5b50565b600081359050610fe181610fbb565b92915050565b60008060006060848603121561100057610fff610db2565b5b600061100e86828701610fa6565b935050602061101f86828701610fa6565b925050604061103086828701610fd2565b9150509250925092565b6000806040838503121561105157611050610db2565b5b600061105f85828601610fa6565b925050602061107085828601610fd2565b9150509250929050565b6000602082840312156110905761108f610db2565b5b600061109e84828501610fd2565b91505092915050565b6110b081610f7d565b82525050565b60006020820190506110cb60008301846110a7565b92915050565b6000602082840312156110e7576110e6610db2565b5b60006110f584828501610fa6565b91505092915050565b600080fd5b600080fd5b7f4e487b7100000000000000000000000000000000000000000000000000000000600052604160045260246000fd5b61114082610ebd565b810181811067ffffffffffffffff8211171561115f5761115e611108565b5b80604052505050565b6000611172610da8565b905061117e8282611137565b919050565b600067ffffffffffffffff82111561119e5761119d611108565b5b6111a782610ebd565b9050602081019050919050565b82818337600083830152505050565b60006111d66111d184611183565b611168565b9050828152602081018484840111156111f2576111f1611103565b5b6111fd8482856111b4565b509392505050565b600082601f83011261121a576112196110fe565b5b813561122a8482602086016111c3565b91505092915050565b60006020828403121561124957611248610db2565b5b600082013567ffffffffffffffff81111561126757611266610db7565b5b61127384828501611205565b91505092915050565b7f4e487b7100000000000000000000000000000000000000000000000000000000600052602260045260246000fd5b600060028204905060018216806112c357607f821691505b6020821081036112d6576112d561127c565b5b50919050565b7f6572726f7220676c6f62616c20696e646578206973206f7574206f6620626f7560008201527f6e64732100000000000000000000000000000000000000000000000000000000602082015250565b6000611338602483610e82565b9150611343826112dc565b604082019050919050565b600060208201905081810360008301526113678161132b565b9050919050565b7f4e487b7100000000000000000000000000000000000000000000000000000000600052603260045260246000fd5b7f6f776e657220717565727920666f72206e6f6e6578697374656e636520746f6b60008201527f656e730000000000000000000000000000000000000000000000000000000000602082015250565b60006113f9602383610e82565b91506114048261139d565b604082019050919050565b60006020820190508181036000830152611428816113ec565b9050919050565b600081905092915050565b600061144582610e77565b61144f818561142f565b935061145f818560208601610e93565b80840191505092915050565b6000611477828461143a565b915081905092915050565b7f4572726f722d6b727970746f4269726420616c72656164792065786973747300600082015250565b60006114b8601f83610e82565b91506114c382611482565b602082019050919050565b600060208201905081810360008301526114e7816114ab565b9050919050565b60008190508160005260206000209050919050565b60006020601f8301049050919050565b600082821b905092915050565b6000600883026115507fffffffffffffffffffffffffffffffffffffffffffffffffffffffffffffffff82611513565b61155a8683611513565b95508019841693508086168417925050509392505050565b6000819050919050565b600061159761159261158d84610f29565b611572565b610f29565b9050919050565b6000819050919050565b6115b18361157c565b6115c56115bd8261159e565b848454611520565b825550505050565b600090565b6115da6115cd565b6115e58184846115a8565b505050565b5b81811015611609576115fe6000826115d2565b6001810190506115eb565b5050565b601f82111561164e5761161f816114ee565b61162884611503565b81016020851015611637578190505b61164b61164385611503565b8301826115ea565b50505b505050565b600082821c905092915050565b600061167160001984600802611653565b1980831691505092915050565b600061168a8383611660565b9150826002028217905092915050565b6116a382610e77565b67ffffffffffffffff8111156116bc576116bb611108565b5b6116c682546112ab565b6116d182828561160d565b600060209050601f83116001811461170457600084156116f2578287015190505b6116fc858261167e565b865550611764565b601f198416611712866114ee565b60005b8281101561173a57848901518255600182019150602085019450602081019050611715565b868310156117575784890151611753601f891682611660565b8355505b6001600288020188555050505b505050505050565b7f4e487b7100000000000000000000000000000000000000000000000000000000600052601160045260246000fd5b60006117a682610f29565b91506117b183610f29565b92508282039050818111156117c9576117c861176c565b5b92915050565b7f4572726f72202d20455243373231205472616e7366657220746f207a65726f2060008201527f6164647265737300000000000000000000000000000000000000000000000000602082015250565b600061182b602783610e82565b9150611836826117cf565b604082019050919050565b6000602082019050818103600083015261185a8161181e565b9050919050565b7f547279696e6720746f205472616e73666572207468652061646472657373206460008201527f6f6573206e6f74206f776e656400000000000000000000000000000000000000602082015250565b60006118bd602d83610e82565b91506118c882611861565b604082019050919050565b600060208201905081810360008301526118ec816118b0565b9050919050565b60006118fe82610f29565b915061190983610f29565b92508282019050808211156119215761192061176c565b5b92915050565b7f4552433732313a206d696e74696e6720746f207a65726f28696e76616c69642960008201527f2061646472657373000000000000000000000000000000000000000000000000602082015250565b6000611983602883610e82565b915061198e82611927565b604082019050919050565b600060208201905081810360008301526119b281611976565b9050919050565b7f45523732313a20746f6b656e20616c7265616479206d696e7465640000000000600082015250565b60006119ef601b83610e82565b91506119fa826119b9565b602082019050919050565b60006020820190508181036000830152611a1e816119e2565b905091905056fea2646970667358221220dc1fffa1334859a86aa2852c37d903d051f82a3fe9a27fb1141b19fcd37b257264736f6c63430008100033",
  "immutableReferences": {},
  "source": " //SPDX-License-Identifier: MIT\r\npragma solidity ^0.8.0;\r\nimport './ERC721Connector.sol';\r\ncontract KryptoBird is ERC721Connector{\r\n    //array to store nfts\r\nstring [] public kryptoBirdz;\r\nmapping(string=>bool)_kryptoBirdzExists;\r\nfunction mint(string memory _kryptoBird)public{\r\n       \r\n       require(!_kryptoBirdzExists[_kryptoBird],'Error-kryptoBird already exists');\r\n\r\n     kryptoBirdz.push(_kryptoBird);\r\n     uint _id=kryptoBirdz.length-1;\r\n     _mint(msg.sender, _id);\r\n\r\n\r\n}\r\n\r\n//initialize this contract to inherit \r\n//name and symbol from erc721Metadata so that\r\n//the name is KryptoBird and the symbol is KBIRDZ\r\n\r\nconstructor() ERC721Connector('KryptoBird','KBIRDZ')\r\n{}\r\n\r\n\r\n\r\n}\r\n",
  "sourcePath": "C:\\Users\\DEEPAK MAURYA\\Desktop\\nft_marketplace\\nft-marketplace-starter-kit\\src\\contracts\\KryptoBirdz.sol",
  "compiler": {
    "name": "solc",
    "version": "0.8.16+commit.07a7930e.Emscripten.clang"
  },
  "schemaVersion": "3.4.4",
  "updatedAt": "2022-08-28T08:41:02.521Z",
  "networkType": "ethereum",
  "devdoc": {
    "kind": "dev",
    "methods": {
      "ownerOf(uint256)": {
        "details": "NFTs assigned to zero address are considered invalid, and queries  about them do throw.",
        "params": {
          "_tokenId": "The identifier for an NFT"
        },
        "returns": {
          "_0": "The address of the owner of the NFT"
        }
      },
      "supportsInterface(bytes4)": {
        "details": "Interface identification is specified in ERC-165. This function  uses less than 30,000 gas.",
        "params": {
          "interfaceID": "The interface identifier, as specified in ERC-165"
        },
        "returns": {
          "_0": "`true` if the contract implements `interfaceID` and  `interfaceID` is not 0xffffffff, `false` otherwise"
        }
      }
    },
    "version": 1
  },
  "userdoc": {
    "kind": "user",
    "methods": {
      "ownerOf(uint256)": {
        "notice": "Find the owner of an NFT"
      },
      "supportsInterface(bytes4)": {
        "notice": "Query if a contract implements an interface"
      }
    },
    "version": 1
  }
}